{
  "_format": "hh-sol-artifact-1",
  "contractName": "supplychain",
  "sourceName": "contracts/Supply.sol",
  "abi": [
    {
      "inputs": [],
      "stateMutability": "nonpayable",
      "type": "constructor"
    },
    {
      "anonymous": false,
      "inputs": [
        {
          "indexed": true,
          "internalType": "string",
          "name": "vendor",
          "type": "string"
        },
        {
          "indexed": false,
          "internalType": "uint256",
          "name": "latitiude",
          "type": "uint256"
        },
        {
          "indexed": false,
          "internalType": "uint256",
          "name": "longitude",
          "type": "uint256"
        }
      ],
      "name": "location",
      "type": "event"
    },
    {
      "inputs": [
        {
          "internalType": "uint256",
          "name": "",
          "type": "uint256"
        }
      ],
      "name": "Movers",
      "outputs": [
        {
          "internalType": "uint256",
          "name": "index",
          "type": "uint256"
        },
        {
          "internalType": "address",
          "name": "responsibleAddress",
          "type": "address"
        },
        {
          "internalType": "uint256",
          "name": "expected_time",
          "type": "uint256"
        },
        {
          "internalType": "uint256",
          "name": "quantity",
          "type": "uint256"
        },
        {
          "internalType": "uint256",
          "name": "exp_latitude",
          "type": "uint256"
        },
        {
          "internalType": "uint256",
          "name": "exp_longitude",
          "type": "uint256"
        },
        {
          "internalType": "uint256",
          "name": "latitude",
          "type": "uint256"
        },
        {
          "internalType": "uint256",
          "name": "longitude",
          "type": "uint256"
        },
        {
          "internalType": "uint256",
          "name": "time_began",
          "type": "uint256"
        }
      ],
      "stateMutability": "view",
      "type": "function"
    },
    {
      "inputs": [
        {
          "components": [
            {
              "internalType": "uint256",
              "name": "index",
              "type": "uint256"
            },
            {
              "internalType": "address",
              "name": "responsibleAddress",
              "type": "address"
            },
            {
              "internalType": "uint256",
              "name": "expected_time",
              "type": "uint256"
            },
            {
              "internalType": "uint256",
              "name": "quantity",
              "type": "uint256"
            },
            {
              "internalType": "uint256",
              "name": "exp_latitude",
              "type": "uint256"
            },
            {
              "internalType": "uint256",
              "name": "exp_longitude",
              "type": "uint256"
            },
            {
              "internalType": "uint256",
              "name": "latitude",
              "type": "uint256"
            },
            {
              "internalType": "uint256",
              "name": "longitude",
              "type": "uint256"
            },
            {
              "internalType": "uint256",
              "name": "time_began",
              "type": "uint256"
            }
          ],
          "internalType": "struct supplychain.UNITS",
          "name": "param",
          "type": "tuple"
        },
        {
          "internalType": "string",
          "name": "vendor",
          "type": "string"
        }
      ],
      "name": "add_unit",
      "outputs": [],
      "stateMutability": "nonpayable",
      "type": "function"
    },
    {
      "inputs": [
        {
          "internalType": "address",
          "name": "",
          "type": "address"
        }
      ],
      "name": "adrToVendor",
      "outputs": [
        {
          "internalType": "string",
          "name": "",
          "type": "string"
        }
      ],
      "stateMutability": "view",
      "type": "function"
    },
    {
      "inputs": [],
      "name": "check",
      "outputs": [
        {
          "internalType": "uint256",
          "name": "",
          "type": "uint256"
        }
      ],
      "stateMutability": "pure",
      "type": "function"
    },
    {
      "inputs": [
        {
          "components": [
            {
              "internalType": "uint256",
              "name": "index",
              "type": "uint256"
            },
            {
              "internalType": "address",
              "name": "responsibleAddress",
              "type": "address"
            },
            {
              "internalType": "uint256",
              "name": "expected_time",
              "type": "uint256"
            },
            {
              "internalType": "uint256",
              "name": "quantity",
              "type": "uint256"
            },
            {
              "internalType": "uint256",
              "name": "exp_latitude",
              "type": "uint256"
            },
            {
              "internalType": "uint256",
              "name": "exp_longitude",
              "type": "uint256"
            },
            {
              "internalType": "uint256",
              "name": "latitude",
              "type": "uint256"
            },
            {
              "internalType": "uint256",
              "name": "longitude",
              "type": "uint256"
            },
            {
              "internalType": "uint256",
              "name": "time_began",
              "type": "uint256"
            }
          ],
          "internalType": "struct supplychain.UNITS[]",
          "name": "units",
          "type": "tuple[]"
        }
      ],
      "name": "checkLocation",
      "outputs": [
        {
          "internalType": "bool",
          "name": "",
          "type": "bool"
        }
      ],
      "stateMutability": "pure",
      "type": "function"
    },
    {
      "inputs": [
        {
          "internalType": "address",
          "name": "RA",
          "type": "address"
        },
        {
          "components": [
            {
              "internalType": "uint256",
              "name": "index",
              "type": "uint256"
            },
            {
              "internalType": "address",
              "name": "responsibleAddress",
              "type": "address"
            },
            {
              "internalType": "uint256",
              "name": "expected_time",
              "type": "uint256"
            },
            {
              "internalType": "uint256",
              "name": "quantity",
              "type": "uint256"
            },
            {
              "internalType": "uint256",
              "name": "exp_latitude",
              "type": "uint256"
            },
            {
              "internalType": "uint256",
              "name": "exp_longitude",
              "type": "uint256"
            },
            {
              "internalType": "uint256",
              "name": "latitude",
              "type": "uint256"
            },
            {
              "internalType": "uint256",
              "name": "longitude",
              "type": "uint256"
            },
            {
              "internalType": "uint256",
              "name": "time_began",
              "type": "uint256"
            }
          ],
          "internalType": "struct supplychain.UNITS[]",
          "name": "units",
          "type": "tuple[]"
        }
      ],
      "name": "combineEvents",
      "outputs": [],
      "stateMutability": "nonpayable",
      "type": "function"
    },
    {
      "inputs": [
        {
          "internalType": "uint256",
          "name": "lat",
          "type": "uint256"
        },
        {
          "internalType": "uint256",
          "name": "long",
          "type": "uint256"
        }
      ],
      "name": "emitLocation",
      "outputs": [],
      "stateMutability": "nonpayable",
      "type": "function"
    },
    {
      "inputs": [],
      "name": "len",
      "outputs": [
        {
          "internalType": "uint256",
          "name": "",
          "type": "uint256"
        }
      ],
      "stateMutability": "view",
      "type": "function"
    },
    {
      "inputs": [
        {
          "internalType": "address",
          "name": "adr",
          "type": "address"
        },
        {
          "internalType": "string",
          "name": "vendor",
          "type": "string"
        }
      ],
      "name": "modifyAdr",
      "outputs": [],
      "stateMutability": "nonpayable",
      "type": "function"
    },
    {
      "inputs": [],
      "name": "owner",
      "outputs": [
        {
          "internalType": "address",
          "name": "",
          "type": "address"
        }
      ],
      "stateMutability": "view",
      "type": "function"
    },
    {
      "inputs": [
        {
          "internalType": "uint256",
          "name": "index",
          "type": "uint256"
        }
      ],
      "name": "remove",
      "outputs": [],
      "stateMutability": "nonpayable",
      "type": "function"
    }
  ],
  "bytecode": "0x60806040523480156200001157600080fd5b50336000806101000a81548173ffffffffffffffffffffffffffffffffffffffff021916908373ffffffffffffffffffffffffffffffffffffffff1602179055506200005c6200028d565b6200007d81604051806020016040528060008152506200008460201b60201c565b50620006d3565b60008054906101000a900473ffffffffffffffffffffffffffffffffffffffff1673ffffffffffffffffffffffffffffffffffffffff163373ffffffffffffffffffffffffffffffffffffffff161462000115576040517f08c379a00000000000000000000000000000000000000000000000000000000081526004016200010c9062000350565b60405180910390fd5b60038054905082600001818152505060038290806001815401808255809150506001900390600052602060002090600902016000909190919091506000820151816000015560208201518160010160006101000a81548173ffffffffffffffffffffffffffffffffffffffff021916908373ffffffffffffffffffffffffffffffffffffffff16021790555060408201518160020155606082015181600301556080820151816004015560a0820151816005015560c0820151816006015560e08201518160070155610100820151816008015550508060016000846020015173ffffffffffffffffffffffffffffffffffffffff1673ffffffffffffffffffffffffffffffffffffffff16815260200190815260200160002090816200023c9190620005ec565b50816000015160026000846020015173ffffffffffffffffffffffffffffffffffffffff1673ffffffffffffffffffffffffffffffffffffffff168152602001908152602001600020819055505050565b60405180610120016040528060008152602001600073ffffffffffffffffffffffffffffffffffffffff168152602001600081526020016000815260200160008152602001600081526020016000815260200160008152602001600081525090565b600082825260208201905092915050565b7f417574686f72697a6564206f6e6c7920746f204f776e65720000000000000000600082015250565b600062000338601883620002ef565b9150620003458262000300565b602082019050919050565b600060208201905081810360008301526200036b8162000329565b9050919050565b600081519050919050565b7f4e487b7100000000000000000000000000000000000000000000000000000000600052604160045260246000fd5b7f4e487b7100000000000000000000000000000000000000000000000000000000600052602260045260246000fd5b60006002820490506001821680620003f457607f821691505b6020821081036200040a5762000409620003ac565b5b50919050565b60008190508160005260206000209050919050565b60006020601f8301049050919050565b600082821b905092915050565b600060088302620004747fffffffffffffffffffffffffffffffffffffffffffffffffffffffffffffffff8262000435565b62000480868362000435565b95508019841693508086168417925050509392505050565b6000819050919050565b6000819050919050565b6000620004cd620004c7620004c18462000498565b620004a2565b62000498565b9050919050565b6000819050919050565b620004e983620004ac565b62000501620004f882620004d4565b84845462000442565b825550505050565b600090565b6200051862000509565b62000525818484620004de565b505050565b5b818110156200054d57620005416000826200050e565b6001810190506200052b565b5050565b601f8211156200059c57620005668162000410565b620005718462000425565b8101602085101562000581578190505b62000599620005908562000425565b8301826200052a565b50505b505050565b600082821c905092915050565b6000620005c160001984600802620005a1565b1980831691505092915050565b6000620005dc8383620005ae565b9150826002028217905092915050565b620005f78262000372565b67ffffffffffffffff8111156200061357620006126200037d565b5b6200061f8254620003db565b6200062c82828562000551565b600060209050601f8311600181146200066457600084156200064f578287015190505b6200065b8582620005ce565b865550620006cb565b601f198416620006748662000410565b60005b828110156200069e5784890151825560018201915060208501945060208101905062000677565b86831015620006be5784890151620006ba601f891682620005ae565b8355505b6001600288020188555050505b505050505050565b611b0e80620006e36000396000f3fe608060405234801561001057600080fd5b50600436106100a85760003560e01c806356d88e271161007157806356d88e27146101615780635807b5801461017f5780636ed212ee1461019b5780637f9fbaec146101b75780638da5cb5b146101ef578063919840ad1461020d576100a8565b80620e9f5f146100ad5780630d62e45c146100dd57806339f2f5a71461010d5780633a16c68b146101295780634cc8221514610145575b600080fd5b6100c760048036038101906100c29190611039565b61022b565b6040516100d4919061109d565b60405180910390f35b6100f760048036038101906100f291906110b8565b6102da565b6040516101049190611164565b60405180910390f35b61012760048036038101906101229190611186565b61037a565b005b610143600480360381019061013e9190611297565b61050b565b005b61015f600480360381019061015a91906112f3565b6105ea565b005b610169610889565b604051610176919061132f565b60405180910390f35b6101996004803603810190610194919061134a565b610896565b005b6101b560048036038101906101b0919061138a565b610aa2565b005b6101d160048036038101906101cc91906112f3565b610ca6565b6040516101e6999897969594939291906113f7565b60405180910390f35b6101f7610d24565b6040516102049190611484565b60405180910390f35b610215610d48565b604051610222919061132f565b60405180910390f35b600080826000815181106102425761024161149f565b5b6020026020010151905060005b83518110156102ce5783818151811061026b5761026a61149f565b5b602002602001015160c001518260c001511415806102ab57508381815181106102975761029661149f565b5b602002602001015160e001518260e0015114155b156102bb576000925050506102d5565b80806102c6906114fd565b91505061024f565b5060019150505b919050565b600160205280600052604060002060009150905080546102f990611574565b80601f016020809104026020016040519081016040528092919081815260200182805461032590611574565b80156103725780601f1061034757610100808354040283529160200191610372565b820191906000526020600020905b81548152906001019060200180831161035557829003601f168201915b505050505081565b60008054906101000a900473ffffffffffffffffffffffffffffffffffffffff1673ffffffffffffffffffffffffffffffffffffffff163373ffffffffffffffffffffffffffffffffffffffff1614610408576040517f08c379a00000000000000000000000000000000000000000000000000000000081526004016103ff906115f1565b60405180910390fd5b6104118161022b565b610450576040517f08c379a00000000000000000000000000000000000000000000000000000000081526004016104479061165d565b60405180910390fd5b60008151905060005b600182610466919061167d565b8110156104a7576104948382815181106104835761048261149f565b5b6020026020010151600001516105ea565b808061049f906114fd565b915050610459565b5082826001836104b7919061167d565b815181106104c8576104c761149f565b5b60200260200101516020019073ffffffffffffffffffffffffffffffffffffffff16908173ffffffffffffffffffffffffffffffffffffffff1681525050505050565b60008054906101000a900473ffffffffffffffffffffffffffffffffffffffff1673ffffffffffffffffffffffffffffffffffffffff163373ffffffffffffffffffffffffffffffffffffffff1614610599576040517f08c379a0000000000000000000000000000000000000000000000000000000008152600401610590906115f1565b60405180910390fd5b80600160008473ffffffffffffffffffffffffffffffffffffffff1673ffffffffffffffffffffffffffffffffffffffff16815260200190815260200160002090816105e5919061185d565b505050565b60008054906101000a900473ffffffffffffffffffffffffffffffffffffffff1673ffffffffffffffffffffffffffffffffffffffff163373ffffffffffffffffffffffffffffffffffffffff1614610678576040517f08c379a000000000000000000000000000000000000000000000000000000000815260040161066f906115f1565b60405180910390fd5b600081036106bb576040517f08c379a00000000000000000000000000000000000000000000000000000000081526004016106b2906119a1565b60405180910390fd5b600360016003805490506106cf919061167d565b815481106106e0576106df61149f565b5b9060005260206000209060090201600382815481106107025761070161149f565b5b9060005260206000209060090201600082015481600001556001820160009054906101000a900473ffffffffffffffffffffffffffffffffffffffff168160010160006101000a81548173ffffffffffffffffffffffffffffffffffffffff021916908373ffffffffffffffffffffffffffffffffffffffff1602179055506002820154816002015560038201548160030155600482015481600401556005820154816005015560068201548160060155600782015481600701556008820154816008015590505080600382815481106107df576107de61149f565b5b9060005260206000209060090201600001819055506003805480610806576108056119c1565b5b60019003818190600052602060002090600902016000808201600090556001820160006101000a81549073ffffffffffffffffffffffffffffffffffffffff021916905560028201600090556003820160009055600482016000905560058201600090556006820160009055600782016000905560088201600090555050905550565b6000600380549050905090565b6000600260003373ffffffffffffffffffffffffffffffffffffffff1673ffffffffffffffffffffffffffffffffffffffff1681526020019081526020016000205490506000811180156108ee575060038054905081105b61092d576040517f08c379a000000000000000000000000000000000000000000000000000000000815260040161092490611a3c565b60405180910390fd5b82600382815481106109425761094161149f565b5b906000526020600020906009020160060181905550816003828154811061096c5761096b61149f565b5b9060005260206000209060090201600701819055506000600160003373ffffffffffffffffffffffffffffffffffffffff1673ffffffffffffffffffffffffffffffffffffffff16815260200190815260200160002080546109cd90611574565b80601f01602080910402602001604051908101604052809291908181526020018280546109f990611574565b8015610a465780601f10610a1b57610100808354040283529160200191610a46565b820191906000526020600020905b815481529060010190602001808311610a2957829003601f168201915b5050505050905080604051610a5b9190611a98565b60405180910390207f4329e25fc01f748355463b325daf955236fab1983895985747a1738e6fc0c8788585604051610a94929190611aaf565b60405180910390a250505050565b60008054906101000a900473ffffffffffffffffffffffffffffffffffffffff1673ffffffffffffffffffffffffffffffffffffffff163373ffffffffffffffffffffffffffffffffffffffff1614610b30576040517f08c379a0000000000000000000000000000000000000000000000000000000008152600401610b27906115f1565b60405180910390fd5b60038054905082600001818152505060038290806001815401808255809150506001900390600052602060002090600902016000909190919091506000820151816000015560208201518160010160006101000a81548173ffffffffffffffffffffffffffffffffffffffff021916908373ffffffffffffffffffffffffffffffffffffffff16021790555060408201518160020155606082015181600301556080820151816004015560a0820151816005015560c0820151816006015560e08201518160070155610100820151816008015550508060016000846020015173ffffffffffffffffffffffffffffffffffffffff1673ffffffffffffffffffffffffffffffffffffffff1681526020019081526020016000209081610c55919061185d565b50816000015160026000846020015173ffffffffffffffffffffffffffffffffffffffff1673ffffffffffffffffffffffffffffffffffffffff168152602001908152602001600020819055505050565b60038181548110610cb657600080fd5b90600052602060002090600902016000915090508060000154908060010160009054906101000a900473ffffffffffffffffffffffffffffffffffffffff16908060020154908060030154908060040154908060050154908060060154908060070154908060080154905089565b60008054906101000a900473ffffffffffffffffffffffffffffffffffffffff1681565b60006017905090565b6000604051905090565b600080fd5b600080fd5b600080fd5b6000601f19601f8301169050919050565b7f4e487b7100000000000000000000000000000000000000000000000000000000600052604160045260246000fd5b610db382610d6a565b810181811067ffffffffffffffff82111715610dd257610dd1610d7b565b5b80604052505050565b6000610de5610d51565b9050610df18282610daa565b919050565b600067ffffffffffffffff821115610e1157610e10610d7b565b5b602082029050602081019050919050565b600080fd5b600080fd5b6000819050919050565b610e3f81610e2c565b8114610e4a57600080fd5b50565b600081359050610e5c81610e36565b92915050565b600073ffffffffffffffffffffffffffffffffffffffff82169050919050565b6000610e8d82610e62565b9050919050565b610e9d81610e82565b8114610ea857600080fd5b50565b600081359050610eba81610e94565b92915050565b60006101208284031215610ed757610ed6610e27565b5b610ee2610120610ddb565b90506000610ef284828501610e4d565b6000830152506020610f0684828501610eab565b6020830152506040610f1a84828501610e4d565b6040830152506060610f2e84828501610e4d565b6060830152506080610f4284828501610e4d565b60808301525060a0610f5684828501610e4d565b60a08301525060c0610f6a84828501610e4d565b60c08301525060e0610f7e84828501610e4d565b60e083015250610100610f9384828501610e4d565b6101008301525092915050565b6000610fb3610fae84610df6565b610ddb565b9050808382526020820190506101208402830185811115610fd757610fd6610e22565b5b835b818110156110015780610fec8882610ec0565b84526020840193505061012081019050610fd9565b5050509392505050565b600082601f8301126110205761101f610d65565b5b8135611030848260208601610fa0565b91505092915050565b60006020828403121561104f5761104e610d5b565b5b600082013567ffffffffffffffff81111561106d5761106c610d60565b5b6110798482850161100b565b91505092915050565b60008115159050919050565b61109781611082565b82525050565b60006020820190506110b2600083018461108e565b92915050565b6000602082840312156110ce576110cd610d5b565b5b60006110dc84828501610eab565b91505092915050565b600081519050919050565b600082825260208201905092915050565b60005b8381101561111f578082015181840152602081019050611104565b60008484015250505050565b6000611136826110e5565b61114081856110f0565b9350611150818560208601611101565b61115981610d6a565b840191505092915050565b6000602082019050818103600083015261117e818461112b565b905092915050565b6000806040838503121561119d5761119c610d5b565b5b60006111ab85828601610eab565b925050602083013567ffffffffffffffff8111156111cc576111cb610d60565b5b6111d88582860161100b565b9150509250929050565b600080fd5b600067ffffffffffffffff82111561120257611201610d7b565b5b61120b82610d6a565b9050602081019050919050565b82818337600083830152505050565b600061123a611235846111e7565b610ddb565b905082815260208101848484011115611256576112556111e2565b5b611261848285611218565b509392505050565b600082601f83011261127e5761127d610d65565b5b813561128e848260208601611227565b91505092915050565b600080604083850312156112ae576112ad610d5b565b5b60006112bc85828601610eab565b925050602083013567ffffffffffffffff8111156112dd576112dc610d60565b5b6112e985828601611269565b9150509250929050565b60006020828403121561130957611308610d5b565b5b600061131784828501610e4d565b91505092915050565b61132981610e2c565b82525050565b60006020820190506113446000830184611320565b92915050565b6000806040838503121561136157611360610d5b565b5b600061136f85828601610e4d565b925050602061138085828601610e4d565b9150509250929050565b60008061014083850312156113a2576113a1610d5b565b5b60006113b085828601610ec0565b92505061012083013567ffffffffffffffff8111156113d2576113d1610d60565b5b6113de85828601611269565b9150509250929050565b6113f181610e82565b82525050565b60006101208201905061140d600083018c611320565b61141a602083018b6113e8565b611427604083018a611320565b6114346060830189611320565b6114416080830188611320565b61144e60a0830187611320565b61145b60c0830186611320565b61146860e0830185611320565b611476610100830184611320565b9a9950505050505050505050565b600060208201905061149960008301846113e8565b92915050565b7f4e487b7100000000000000000000000000000000000000000000000000000000600052603260045260246000fd5b7f4e487b7100000000000000000000000000000000000000000000000000000000600052601160045260246000fd5b600061150882610e2c565b91507fffffffffffffffffffffffffffffffffffffffffffffffffffffffffffffffff820361153a576115396114ce565b5b600182019050919050565b7f4e487b7100000000000000000000000000000000000000000000000000000000600052602260045260246000fd5b6000600282049050600182168061158c57607f821691505b60208210810361159f5761159e611545565b5b50919050565b7f417574686f72697a6564206f6e6c7920746f204f776e65720000000000000000600082015250565b60006115db6018836110f0565b91506115e6826115a5565b602082019050919050565b6000602082019050818103600083015261160a816115ce565b9050919050565b7f4c6f636174696f6e206f66206576656e747320646f6e2774206d617463680000600082015250565b6000611647601e836110f0565b915061165282611611565b602082019050919050565b600060208201905081810360008301526116768161163a565b9050919050565b600061168882610e2c565b915061169383610e2c565b92508282039050818111156116ab576116aa6114ce565b5b92915050565b60008190508160005260206000209050919050565b60006020601f8301049050919050565b600082821b905092915050565b6000600883026117137fffffffffffffffffffffffffffffffffffffffffffffffffffffffffffffffff826116d6565b61171d86836116d6565b95508019841693508086168417925050509392505050565b6000819050919050565b600061175a61175561175084610e2c565b611735565b610e2c565b9050919050565b6000819050919050565b6117748361173f565b61178861178082611761565b8484546116e3565b825550505050565b600090565b61179d611790565b6117a881848461176b565b505050565b5b818110156117cc576117c1600082611795565b6001810190506117ae565b5050565b601f821115611811576117e2816116b1565b6117eb846116c6565b810160208510156117fa578190505b61180e611806856116c6565b8301826117ad565b50505b505050565b600082821c905092915050565b600061183460001984600802611816565b1980831691505092915050565b600061184d8383611823565b9150826002028217905092915050565b611866826110e5565b67ffffffffffffffff81111561187f5761187e610d7b565b5b6118898254611574565b6118948282856117d0565b600060209050601f8311600181146118c757600084156118b5578287015190505b6118bf8582611841565b865550611927565b601f1984166118d5866116b1565b60005b828110156118fd578489015182556001820191506020850194506020810190506118d8565b8683101561191a5784890151611916601f891682611823565b8355505b6001600288020188555050505b505050505050565b7f43616e6e6f742072656d6f76652064756d6d7920537570706c69657220756e6960008201527f74206174207374617274206f66204d6f76657273206172726179000000000000602082015250565b600061198b603a836110f0565b91506119968261192f565b604082019050919050565b600060208201905081810360008301526119ba8161197e565b9050919050565b7f4e487b7100000000000000000000000000000000000000000000000000000000600052603160045260246000fd5b7f6e6f742076656e646f7200000000000000000000000000000000000000000000600082015250565b6000611a26600a836110f0565b9150611a31826119f0565b602082019050919050565b60006020820190508181036000830152611a5581611a19565b9050919050565b600081905092915050565b6000611a72826110e5565b611a7c8185611a5c565b9350611a8c818560208601611101565b80840191505092915050565b6000611aa48284611a67565b915081905092915050565b6000604082019050611ac46000830185611320565b611ad16020830184611320565b939250505056fea26469706673582212206f7ac30483c4d9dbb805d5c2461bd058b434aa69d753b45ffbcbc9b67776468a64736f6c63430008110033",
  "linkReferences": {},
  "deployedLinkReferences": {}
}