{
  "_format": "hh-sol-artifact-1",
  "contractName": "supplychain",
  "sourceName": "contracts/Supply.sol",
  "abi": [
    {
      "inputs": [],
      "stateMutability": "nonpayable",
      "type": "constructor"
    },
    {
      "anonymous": false,
      "inputs": [
        {
          "indexed": true,
          "internalType": "string",
          "name": "vendor",
          "type": "string"
        },
        {
          "indexed": false,
          "internalType": "uint256",
          "name": "latitiude",
          "type": "uint256"
        },
        {
          "indexed": false,
          "internalType": "uint256",
          "name": "longitude",
          "type": "uint256"
        }
      ],
      "name": "location",
      "type": "event"
    },
    {
      "inputs": [
        {
          "internalType": "uint256",
          "name": "",
          "type": "uint256"
        }
      ],
      "name": "Movers",
      "outputs": [
        {
          "internalType": "uint256",
          "name": "index",
          "type": "uint256"
        },
        {
          "internalType": "address",
          "name": "responsibleAddress",
          "type": "address"
        },
        {
          "internalType": "uint256",
          "name": "expected_time",
          "type": "uint256"
        },
        {
          "internalType": "uint256",
          "name": "quantity",
          "type": "uint256"
        },
        {
          "internalType": "uint256",
          "name": "exp_latitude",
          "type": "uint256"
        },
        {
          "internalType": "uint256",
          "name": "exp_longitude",
          "type": "uint256"
        },
        {
          "internalType": "uint256",
          "name": "latitude",
          "type": "uint256"
        },
        {
          "internalType": "uint256",
          "name": "longitude",
          "type": "uint256"
        },
        {
          "internalType": "uint256",
          "name": "time_began",
          "type": "uint256"
        }
      ],
      "stateMutability": "view",
      "type": "function"
    },
    {
      "inputs": [
        {
          "components": [
            {
              "internalType": "uint256",
              "name": "index",
              "type": "uint256"
            },
            {
              "internalType": "address",
              "name": "responsibleAddress",
              "type": "address"
            },
            {
              "internalType": "uint256",
              "name": "expected_time",
              "type": "uint256"
            },
            {
              "internalType": "uint256",
              "name": "quantity",
              "type": "uint256"
            },
            {
              "internalType": "uint256",
              "name": "exp_latitude",
              "type": "uint256"
            },
            {
              "internalType": "uint256",
              "name": "exp_longitude",
              "type": "uint256"
            },
            {
              "internalType": "uint256",
              "name": "latitude",
              "type": "uint256"
            },
            {
              "internalType": "uint256",
              "name": "longitude",
              "type": "uint256"
            },
            {
              "internalType": "uint256",
              "name": "time_began",
              "type": "uint256"
            }
          ],
          "internalType": "struct supplychain.UNITS",
          "name": "param",
          "type": "tuple"
        },
        {
          "internalType": "string",
          "name": "vendor",
          "type": "string"
        }
      ],
      "name": "add_unit",
      "outputs": [],
      "stateMutability": "nonpayable",
      "type": "function"
    },
    {
      "inputs": [],
      "name": "check",
      "outputs": [
        {
          "internalType": "uint256",
          "name": "",
          "type": "uint256"
        }
      ],
      "stateMutability": "pure",
      "type": "function"
    },
    {
      "inputs": [
        {
          "components": [
            {
              "internalType": "uint256",
              "name": "index",
              "type": "uint256"
            },
            {
              "internalType": "address",
              "name": "responsibleAddress",
              "type": "address"
            },
            {
              "internalType": "uint256",
              "name": "expected_time",
              "type": "uint256"
            },
            {
              "internalType": "uint256",
              "name": "quantity",
              "type": "uint256"
            },
            {
              "internalType": "uint256",
              "name": "exp_latitude",
              "type": "uint256"
            },
            {
              "internalType": "uint256",
              "name": "exp_longitude",
              "type": "uint256"
            },
            {
              "internalType": "uint256",
              "name": "latitude",
              "type": "uint256"
            },
            {
              "internalType": "uint256",
              "name": "longitude",
              "type": "uint256"
            },
            {
              "internalType": "uint256",
              "name": "time_began",
              "type": "uint256"
            }
          ],
          "internalType": "struct supplychain.UNITS[]",
          "name": "units",
          "type": "tuple[]"
        }
      ],
      "name": "checkLocation",
      "outputs": [
        {
          "internalType": "bool",
          "name": "",
          "type": "bool"
        }
      ],
      "stateMutability": "pure",
      "type": "function"
    },
    {
      "inputs": [
        {
          "internalType": "address",
          "name": "RA",
          "type": "address"
        },
        {
          "components": [
            {
              "internalType": "uint256",
              "name": "index",
              "type": "uint256"
            },
            {
              "internalType": "address",
              "name": "responsibleAddress",
              "type": "address"
            },
            {
              "internalType": "uint256",
              "name": "expected_time",
              "type": "uint256"
            },
            {
              "internalType": "uint256",
              "name": "quantity",
              "type": "uint256"
            },
            {
              "internalType": "uint256",
              "name": "exp_latitude",
              "type": "uint256"
            },
            {
              "internalType": "uint256",
              "name": "exp_longitude",
              "type": "uint256"
            },
            {
              "internalType": "uint256",
              "name": "latitude",
              "type": "uint256"
            },
            {
              "internalType": "uint256",
              "name": "longitude",
              "type": "uint256"
            },
            {
              "internalType": "uint256",
              "name": "time_began",
              "type": "uint256"
            }
          ],
          "internalType": "struct supplychain.UNITS[]",
          "name": "units",
          "type": "tuple[]"
        }
      ],
      "name": "combineEvents",
      "outputs": [],
      "stateMutability": "nonpayable",
      "type": "function"
    },
    {
      "inputs": [
        {
          "components": [
            {
              "internalType": "uint256",
              "name": "index",
              "type": "uint256"
            },
            {
              "internalType": "address",
              "name": "responsibleAddress",
              "type": "address"
            },
            {
              "internalType": "uint256",
              "name": "expected_time",
              "type": "uint256"
            },
            {
              "internalType": "uint256",
              "name": "quantity",
              "type": "uint256"
            },
            {
              "internalType": "uint256",
              "name": "exp_latitude",
              "type": "uint256"
            },
            {
              "internalType": "uint256",
              "name": "exp_longitude",
              "type": "uint256"
            },
            {
              "internalType": "uint256",
              "name": "latitude",
              "type": "uint256"
            },
            {
              "internalType": "uint256",
              "name": "longitude",
              "type": "uint256"
            },
            {
              "internalType": "uint256",
              "name": "time_began",
              "type": "uint256"
            }
          ],
          "internalType": "struct supplychain.UNITS",
          "name": "a",
          "type": "tuple"
        }
      ],
      "name": "emitLocation",
      "outputs": [],
      "stateMutability": "nonpayable",
      "type": "function"
    },
    {
      "inputs": [
        {
          "internalType": "address",
          "name": "adr",
          "type": "address"
        },
        {
          "internalType": "string",
          "name": "vendor",
          "type": "string"
        }
      ],
      "name": "modifyAdr",
      "outputs": [],
      "stateMutability": "nonpayable",
      "type": "function"
    },
    {
      "inputs": [],
      "name": "owner",
      "outputs": [
        {
          "internalType": "address",
          "name": "",
          "type": "address"
        }
      ],
      "stateMutability": "view",
      "type": "function"
    },
    {
      "inputs": [
        {
          "internalType": "uint256",
          "name": "index",
          "type": "uint256"
        }
      ],
      "name": "remove",
      "outputs": [],
      "stateMutability": "nonpayable",
      "type": "function"
    }
  ],
  "bytecode": "0x608060405234801561001057600080fd5b50336000806101000a81548173ffffffffffffffffffffffffffffffffffffffff021916908373ffffffffffffffffffffffffffffffffffffffff1602179055506117df806100606000396000f3fe608060405234801561001057600080fd5b50600436106100925760003560e01c80634cc82215116100665780634cc822151461011b5780636ed212ee146101375780637f9fbaec146101535780638da5cb5b1461018b578063919840ad146101a957610092565b80620e9f5f146100975780632b78d248146100c757806339f2f5a7146100e35780633a16c68b146100ff575b600080fd5b6100b160048036038101906100ac9190610e36565b6101c7565b6040516100be9190610e9a565b60405180910390f35b6100e160048036038101906100dc9190610eb5565b610276565b005b6100fd60048036038101906100f89190610ee3565b61041f565b005b61011960048036038101906101149190610ff4565b6105b0565b005b61013560048036038101906101309190611050565b61068f565b005b610151600480360381019061014c919061107d565b6108eb565b005b61016d60048036038101906101689190611050565b610aa3565b604051610182999897969594939291906110f9565b60405180910390f35b610193610b21565b6040516101a09190611186565b60405180910390f35b6101b1610b45565b6040516101be91906111a1565b60405180910390f35b600080826000815181106101de576101dd6111bc565b5b6020026020010151905060005b835181101561026a57838181518110610207576102066111bc565b5b602002602001015160c001518260c001511415806102475750838181518110610233576102326111bc565b5b602002602001015160e001518260e0015114155b1561025757600092505050610271565b80806102629061121a565b9150506101eb565b5060019150505b919050565b806020015173ffffffffffffffffffffffffffffffffffffffff163373ffffffffffffffffffffffffffffffffffffffff16146102e8576040517f08c379a00000000000000000000000000000000000000000000000000000000081526004016102df906112bf565b60405180910390fd5b600060016000836020015173ffffffffffffffffffffffffffffffffffffffff1673ffffffffffffffffffffffffffffffffffffffff16815260200190815260200160002080546103389061130e565b80601f01602080910402602001604051908101604052809291908181526020018280546103649061130e565b80156103b15780601f10610386576101008083540402835291602001916103b1565b820191906000526020600020905b81548152906001019060200180831161039457829003601f168201915b5050505050905060008260c00151905060008360e001519050826040516103d891906113b0565b60405180910390207f4329e25fc01f748355463b325daf955236fab1983895985747a1738e6fc0c87883836040516104119291906113c7565b60405180910390a250505050565b60008054906101000a900473ffffffffffffffffffffffffffffffffffffffff1673ffffffffffffffffffffffffffffffffffffffff163373ffffffffffffffffffffffffffffffffffffffff16146104ad576040517f08c379a00000000000000000000000000000000000000000000000000000000081526004016104a49061143c565b60405180910390fd5b6104b6816101c7565b6104f5576040517f08c379a00000000000000000000000000000000000000000000000000000000081526004016104ec906114a8565b60405180910390fd5b60008151905060005b60018261050b91906114c8565b81101561054c57610539838281518110610528576105276111bc565b5b60200260200101516000015161068f565b80806105449061121a565b9150506104fe565b50828260018361055c91906114c8565b8151811061056d5761056c6111bc565b5b60200260200101516020019073ffffffffffffffffffffffffffffffffffffffff16908173ffffffffffffffffffffffffffffffffffffffff1681525050505050565b60008054906101000a900473ffffffffffffffffffffffffffffffffffffffff1673ffffffffffffffffffffffffffffffffffffffff163373ffffffffffffffffffffffffffffffffffffffff161461063e576040517f08c379a00000000000000000000000000000000000000000000000000000000081526004016106359061143c565b60405180910390fd5b80600160008473ffffffffffffffffffffffffffffffffffffffff1673ffffffffffffffffffffffffffffffffffffffff168152602001908152602001600020908161068a91906116a8565b505050565b60008054906101000a900473ffffffffffffffffffffffffffffffffffffffff1673ffffffffffffffffffffffffffffffffffffffff163373ffffffffffffffffffffffffffffffffffffffff161461071d576040517f08c379a00000000000000000000000000000000000000000000000000000000081526004016107149061143c565b60405180910390fd5b6002600160028054905061073191906114c8565b81548110610742576107416111bc565b5b906000526020600020906009020160028281548110610764576107636111bc565b5b9060005260206000209060090201600082015481600001556001820160009054906101000a900473ffffffffffffffffffffffffffffffffffffffff168160010160006101000a81548173ffffffffffffffffffffffffffffffffffffffff021916908373ffffffffffffffffffffffffffffffffffffffff160217905550600282015481600201556003820154816003015560048201548160040155600582015481600501556006820154816006015560078201548160070155600882015481600801559050508060028281548110610841576108406111bc565b5b90600052602060002090600902016000018190555060028054806108685761086761177a565b5b60019003818190600052602060002090600902016000808201600090556001820160006101000a81549073ffffffffffffffffffffffffffffffffffffffff021916905560028201600090556003820160009055600482016000905560058201600090556006820160009055600782016000905560088201600090555050905550565b60008054906101000a900473ffffffffffffffffffffffffffffffffffffffff1673ffffffffffffffffffffffffffffffffffffffff163373ffffffffffffffffffffffffffffffffffffffff1614610979576040517f08c379a00000000000000000000000000000000000000000000000000000000081526004016109709061143c565b60405180910390fd5b60028054905082600001818152505060028290806001815401808255809150506001900390600052602060002090600902016000909190919091506000820151816000015560208201518160010160006101000a81548173ffffffffffffffffffffffffffffffffffffffff021916908373ffffffffffffffffffffffffffffffffffffffff16021790555060408201518160020155606082015181600301556080820151816004015560a0820151816005015560c0820151816006015560e08201518160070155610100820151816008015550508060016000846020015173ffffffffffffffffffffffffffffffffffffffff1673ffffffffffffffffffffffffffffffffffffffff1681526020019081526020016000209081610a9e91906116a8565b505050565b60028181548110610ab357600080fd5b90600052602060002090600902016000915090508060000154908060010160009054906101000a900473ffffffffffffffffffffffffffffffffffffffff16908060020154908060030154908060040154908060050154908060060154908060070154908060080154905089565b60008054906101000a900473ffffffffffffffffffffffffffffffffffffffff1681565b60006017905090565b6000604051905090565b600080fd5b600080fd5b600080fd5b6000601f19601f8301169050919050565b7f4e487b7100000000000000000000000000000000000000000000000000000000600052604160045260246000fd5b610bb082610b67565b810181811067ffffffffffffffff82111715610bcf57610bce610b78565b5b80604052505050565b6000610be2610b4e565b9050610bee8282610ba7565b919050565b600067ffffffffffffffff821115610c0e57610c0d610b78565b5b602082029050602081019050919050565b600080fd5b600080fd5b6000819050919050565b610c3c81610c29565b8114610c4757600080fd5b50565b600081359050610c5981610c33565b92915050565b600073ffffffffffffffffffffffffffffffffffffffff82169050919050565b6000610c8a82610c5f565b9050919050565b610c9a81610c7f565b8114610ca557600080fd5b50565b600081359050610cb781610c91565b92915050565b60006101208284031215610cd457610cd3610c24565b5b610cdf610120610bd8565b90506000610cef84828501610c4a565b6000830152506020610d0384828501610ca8565b6020830152506040610d1784828501610c4a565b6040830152506060610d2b84828501610c4a565b6060830152506080610d3f84828501610c4a565b60808301525060a0610d5384828501610c4a565b60a08301525060c0610d6784828501610c4a565b60c08301525060e0610d7b84828501610c4a565b60e083015250610100610d9084828501610c4a565b6101008301525092915050565b6000610db0610dab84610bf3565b610bd8565b9050808382526020820190506101208402830185811115610dd457610dd3610c1f565b5b835b81811015610dfe5780610de98882610cbd565b84526020840193505061012081019050610dd6565b5050509392505050565b600082601f830112610e1d57610e1c610b62565b5b8135610e2d848260208601610d9d565b91505092915050565b600060208284031215610e4c57610e4b610b58565b5b600082013567ffffffffffffffff811115610e6a57610e69610b5d565b5b610e7684828501610e08565b91505092915050565b60008115159050919050565b610e9481610e7f565b82525050565b6000602082019050610eaf6000830184610e8b565b92915050565b60006101208284031215610ecc57610ecb610b58565b5b6000610eda84828501610cbd565b91505092915050565b60008060408385031215610efa57610ef9610b58565b5b6000610f0885828601610ca8565b925050602083013567ffffffffffffffff811115610f2957610f28610b5d565b5b610f3585828601610e08565b9150509250929050565b600080fd5b600067ffffffffffffffff821115610f5f57610f5e610b78565b5b610f6882610b67565b9050602081019050919050565b82818337600083830152505050565b6000610f97610f9284610f44565b610bd8565b905082815260208101848484011115610fb357610fb2610f3f565b5b610fbe848285610f75565b509392505050565b600082601f830112610fdb57610fda610b62565b5b8135610feb848260208601610f84565b91505092915050565b6000806040838503121561100b5761100a610b58565b5b600061101985828601610ca8565b925050602083013567ffffffffffffffff81111561103a57611039610b5d565b5b61104685828601610fc6565b9150509250929050565b60006020828403121561106657611065610b58565b5b600061107484828501610c4a565b91505092915050565b600080610140838503121561109557611094610b58565b5b60006110a385828601610cbd565b92505061012083013567ffffffffffffffff8111156110c5576110c4610b5d565b5b6110d185828601610fc6565b9150509250929050565b6110e481610c29565b82525050565b6110f381610c7f565b82525050565b60006101208201905061110f600083018c6110db565b61111c602083018b6110ea565b611129604083018a6110db565b61113660608301896110db565b61114360808301886110db565b61115060a08301876110db565b61115d60c08301866110db565b61116a60e08301856110db565b6111786101008301846110db565b9a9950505050505050505050565b600060208201905061119b60008301846110ea565b92915050565b60006020820190506111b660008301846110db565b92915050565b7f4e487b7100000000000000000000000000000000000000000000000000000000600052603260045260246000fd5b7f4e487b7100000000000000000000000000000000000000000000000000000000600052601160045260246000fd5b600061122582610c29565b91507fffffffffffffffffffffffffffffffffffffffffffffffffffffffffffffffff8203611257576112566111eb565b5b600182019050919050565b600082825260208201905092915050565b7f6e6f742076656e646f7200000000000000000000000000000000000000000000600082015250565b60006112a9600a83611262565b91506112b482611273565b602082019050919050565b600060208201905081810360008301526112d88161129c565b9050919050565b7f4e487b7100000000000000000000000000000000000000000000000000000000600052602260045260246000fd5b6000600282049050600182168061132657607f821691505b602082108103611339576113386112df565b5b50919050565b600081519050919050565b600081905092915050565b60005b83811015611373578082015181840152602081019050611358565b60008484015250505050565b600061138a8261133f565b611394818561134a565b93506113a4818560208601611355565b80840191505092915050565b60006113bc828461137f565b915081905092915050565b60006040820190506113dc60008301856110db565b6113e960208301846110db565b9392505050565b7f417574686f72697a6564206f6e6c7920746f204f776e65720000000000000000600082015250565b6000611426601883611262565b9150611431826113f0565b602082019050919050565b6000602082019050818103600083015261145581611419565b9050919050565b7f4c6f636174696f6e206f66206576656e747320646f6e2774206d617463680000600082015250565b6000611492601e83611262565b915061149d8261145c565b602082019050919050565b600060208201905081810360008301526114c181611485565b9050919050565b60006114d382610c29565b91506114de83610c29565b92508282039050818111156114f6576114f56111eb565b5b92915050565b60008190508160005260206000209050919050565b60006020601f8301049050919050565b600082821b905092915050565b60006008830261155e7fffffffffffffffffffffffffffffffffffffffffffffffffffffffffffffffff82611521565b6115688683611521565b95508019841693508086168417925050509392505050565b6000819050919050565b60006115a56115a061159b84610c29565b611580565b610c29565b9050919050565b6000819050919050565b6115bf8361158a565b6115d36115cb826115ac565b84845461152e565b825550505050565b600090565b6115e86115db565b6115f38184846115b6565b505050565b5b818110156116175761160c6000826115e0565b6001810190506115f9565b5050565b601f82111561165c5761162d816114fc565b61163684611511565b81016020851015611645578190505b61165961165185611511565b8301826115f8565b50505b505050565b600082821c905092915050565b600061167f60001984600802611661565b1980831691505092915050565b6000611698838361166e565b9150826002028217905092915050565b6116b18261133f565b67ffffffffffffffff8111156116ca576116c9610b78565b5b6116d4825461130e565b6116df82828561161b565b600060209050601f8311600181146117125760008415611700578287015190505b61170a858261168c565b865550611772565b601f198416611720866114fc565b60005b8281101561174857848901518255600182019150602085019450602081019050611723565b868310156117655784890151611761601f89168261166e565b8355505b6001600288020188555050505b505050505050565b7f4e487b7100000000000000000000000000000000000000000000000000000000600052603160045260246000fdfea26469706673582212209abaa5348f4115dbb18aebe2cec6cece00bc747dc8214b68bf2e37a0d6c5780e64736f6c63430008110033",
  "linkReferences": {},
  "deployedLinkReferences": {}
}