{
  "_format": "hh-sol-artifact-1",
  "contractName": "supplychain",
  "sourceName": "contracts/Supply.sol",
  "abi": [
    {
      "inputs": [],
      "stateMutability": "nonpayable",
      "type": "constructor"
    },
    {
      "anonymous": false,
      "inputs": [
        {
          "indexed": true,
          "internalType": "string",
          "name": "vendor",
          "type": "string"
        },
        {
          "indexed": false,
          "internalType": "uint256",
          "name": "latitiude",
          "type": "uint256"
        },
        {
          "indexed": false,
          "internalType": "uint256",
          "name": "longitude",
          "type": "uint256"
        }
      ],
      "name": "location",
      "type": "event"
    },
    {
      "inputs": [
        {
          "internalType": "uint256",
          "name": "",
          "type": "uint256"
        }
      ],
      "name": "Movers",
      "outputs": [
        {
          "internalType": "uint256",
          "name": "index",
          "type": "uint256"
        },
        {
          "internalType": "address",
          "name": "responsibleAddress",
          "type": "address"
        },
        {
          "internalType": "uint256",
          "name": "expected_time",
          "type": "uint256"
        },
        {
          "internalType": "uint256",
          "name": "quantity",
          "type": "uint256"
        },
        {
          "internalType": "uint256",
          "name": "exp_latitude",
          "type": "uint256"
        },
        {
          "internalType": "uint256",
          "name": "exp_longitude",
          "type": "uint256"
        },
        {
          "internalType": "uint256",
          "name": "latitude",
          "type": "uint256"
        },
        {
          "internalType": "uint256",
          "name": "longitude",
          "type": "uint256"
        },
        {
          "internalType": "uint256",
          "name": "time_began",
          "type": "uint256"
        }
      ],
      "stateMutability": "view",
      "type": "function"
    },
    {
      "inputs": [
        {
          "components": [
            {
              "internalType": "uint256",
              "name": "index",
              "type": "uint256"
            },
            {
              "internalType": "address",
              "name": "responsibleAddress",
              "type": "address"
            },
            {
              "internalType": "uint256",
              "name": "expected_time",
              "type": "uint256"
            },
            {
              "internalType": "uint256",
              "name": "quantity",
              "type": "uint256"
            },
            {
              "internalType": "uint256",
              "name": "exp_latitude",
              "type": "uint256"
            },
            {
              "internalType": "uint256",
              "name": "exp_longitude",
              "type": "uint256"
            },
            {
              "internalType": "uint256",
              "name": "latitude",
              "type": "uint256"
            },
            {
              "internalType": "uint256",
              "name": "longitude",
              "type": "uint256"
            },
            {
              "internalType": "uint256",
              "name": "time_began",
              "type": "uint256"
            }
          ],
          "internalType": "struct supplychain.UNITS",
          "name": "param",
          "type": "tuple"
        },
        {
          "internalType": "string",
          "name": "vendor",
          "type": "string"
        }
      ],
      "name": "add_unit",
      "outputs": [],
      "stateMutability": "nonpayable",
      "type": "function"
    },
    {
      "inputs": [],
      "name": "check",
      "outputs": [
        {
          "internalType": "uint256",
          "name": "",
          "type": "uint256"
        }
      ],
      "stateMutability": "pure",
      "type": "function"
    },
    {
      "inputs": [
        {
          "components": [
            {
              "internalType": "uint256",
              "name": "index",
              "type": "uint256"
            },
            {
              "internalType": "address",
              "name": "responsibleAddress",
              "type": "address"
            },
            {
              "internalType": "uint256",
              "name": "expected_time",
              "type": "uint256"
            },
            {
              "internalType": "uint256",
              "name": "quantity",
              "type": "uint256"
            },
            {
              "internalType": "uint256",
              "name": "exp_latitude",
              "type": "uint256"
            },
            {
              "internalType": "uint256",
              "name": "exp_longitude",
              "type": "uint256"
            },
            {
              "internalType": "uint256",
              "name": "latitude",
              "type": "uint256"
            },
            {
              "internalType": "uint256",
              "name": "longitude",
              "type": "uint256"
            },
            {
              "internalType": "uint256",
              "name": "time_began",
              "type": "uint256"
            }
          ],
          "internalType": "struct supplychain.UNITS[]",
          "name": "units",
          "type": "tuple[]"
        }
      ],
      "name": "checkLocation",
      "outputs": [
        {
          "internalType": "bool",
          "name": "",
          "type": "bool"
        }
      ],
      "stateMutability": "pure",
      "type": "function"
    },
    {
      "inputs": [
        {
          "internalType": "address",
          "name": "RA",
          "type": "address"
        },
        {
          "components": [
            {
              "internalType": "uint256",
              "name": "index",
              "type": "uint256"
            },
            {
              "internalType": "address",
              "name": "responsibleAddress",
              "type": "address"
            },
            {
              "internalType": "uint256",
              "name": "expected_time",
              "type": "uint256"
            },
            {
              "internalType": "uint256",
              "name": "quantity",
              "type": "uint256"
            },
            {
              "internalType": "uint256",
              "name": "exp_latitude",
              "type": "uint256"
            },
            {
              "internalType": "uint256",
              "name": "exp_longitude",
              "type": "uint256"
            },
            {
              "internalType": "uint256",
              "name": "latitude",
              "type": "uint256"
            },
            {
              "internalType": "uint256",
              "name": "longitude",
              "type": "uint256"
            },
            {
              "internalType": "uint256",
              "name": "time_began",
              "type": "uint256"
            }
          ],
          "internalType": "struct supplychain.UNITS[]",
          "name": "units",
          "type": "tuple[]"
        }
      ],
      "name": "combineEvents",
      "outputs": [],
      "stateMutability": "nonpayable",
      "type": "function"
    },
    {
      "inputs": [
        {
          "internalType": "uint256",
          "name": "lat",
          "type": "uint256"
        },
        {
          "internalType": "uint256",
          "name": "long",
          "type": "uint256"
        }
      ],
      "name": "emitLocation",
      "outputs": [],
      "stateMutability": "nonpayable",
      "type": "function"
    },
    {
      "inputs": [],
      "name": "len",
      "outputs": [
        {
          "internalType": "uint256",
          "name": "",
          "type": "uint256"
        }
      ],
      "stateMutability": "view",
      "type": "function"
    },
    {
      "inputs": [
        {
          "internalType": "address",
          "name": "adr",
          "type": "address"
        },
        {
          "internalType": "string",
          "name": "vendor",
          "type": "string"
        }
      ],
      "name": "modifyAdr",
      "outputs": [],
      "stateMutability": "nonpayable",
      "type": "function"
    },
    {
      "inputs": [],
      "name": "owner",
      "outputs": [
        {
          "internalType": "address",
          "name": "",
          "type": "address"
        }
      ],
      "stateMutability": "view",
      "type": "function"
    },
    {
      "inputs": [
        {
          "internalType": "uint256",
          "name": "index",
          "type": "uint256"
        }
      ],
      "name": "remove",
      "outputs": [],
      "stateMutability": "nonpayable",
      "type": "function"
    }
  ],
  "bytecode": "0x60806040523480156200001157600080fd5b50336000806101000a81548173ffffffffffffffffffffffffffffffffffffffff021916908373ffffffffffffffffffffffffffffffffffffffff1602179055506200005c6200028d565b6200007d81604051806020016040528060008152506200008460201b60201c565b50620006d3565b60008054906101000a900473ffffffffffffffffffffffffffffffffffffffff1673ffffffffffffffffffffffffffffffffffffffff163373ffffffffffffffffffffffffffffffffffffffff161462000115576040517f08c379a00000000000000000000000000000000000000000000000000000000081526004016200010c9062000350565b60405180910390fd5b60038054905082600001818152505060038290806001815401808255809150506001900390600052602060002090600902016000909190919091506000820151816000015560208201518160010160006101000a81548173ffffffffffffffffffffffffffffffffffffffff021916908373ffffffffffffffffffffffffffffffffffffffff16021790555060408201518160020155606082015181600301556080820151816004015560a0820151816005015560c0820151816006015560e08201518160070155610100820151816008015550508060016000846020015173ffffffffffffffffffffffffffffffffffffffff1673ffffffffffffffffffffffffffffffffffffffff16815260200190815260200160002090816200023c9190620005ec565b50816000015160026000846020015173ffffffffffffffffffffffffffffffffffffffff1673ffffffffffffffffffffffffffffffffffffffff168152602001908152602001600020819055505050565b60405180610120016040528060008152602001600073ffffffffffffffffffffffffffffffffffffffff168152602001600081526020016000815260200160008152602001600081526020016000815260200160008152602001600081525090565b600082825260208201905092915050565b7f417574686f72697a6564206f6e6c7920746f204f776e65720000000000000000600082015250565b600062000338601883620002ef565b9150620003458262000300565b602082019050919050565b600060208201905081810360008301526200036b8162000329565b9050919050565b600081519050919050565b7f4e487b7100000000000000000000000000000000000000000000000000000000600052604160045260246000fd5b7f4e487b7100000000000000000000000000000000000000000000000000000000600052602260045260246000fd5b60006002820490506001821680620003f457607f821691505b6020821081036200040a5762000409620003ac565b5b50919050565b60008190508160005260206000209050919050565b60006020601f8301049050919050565b600082821b905092915050565b600060088302620004747fffffffffffffffffffffffffffffffffffffffffffffffffffffffffffffffff8262000435565b62000480868362000435565b95508019841693508086168417925050509392505050565b6000819050919050565b6000819050919050565b6000620004cd620004c7620004c18462000498565b620004a2565b62000498565b9050919050565b6000819050919050565b620004e983620004ac565b62000501620004f882620004d4565b84845462000442565b825550505050565b600090565b6200051862000509565b62000525818484620004de565b505050565b5b818110156200054d57620005416000826200050e565b6001810190506200052b565b5050565b601f8211156200059c57620005668162000410565b620005718462000425565b8101602085101562000581578190505b62000599620005908562000425565b8301826200052a565b50505b505050565b600082821c905092915050565b6000620005c160001984600802620005a1565b1980831691505092915050565b6000620005dc8383620005ae565b9150826002028217905092915050565b620005f78262000372565b67ffffffffffffffff8111156200061357620006126200037d565b5b6200061f8254620003db565b6200062c82828562000551565b600060209050601f8311600181146200066457600084156200064f578287015190505b6200065b8582620005ce565b865550620006cb565b601f198416620006748662000410565b60005b828110156200069e5784890151825560018201915060208501945060208101905062000677565b86831015620006be5784890151620006ba601f891682620005ae565b8355505b6001600288020188555050505b505050505050565b6119ab80620006e36000396000f3fe608060405234801561001057600080fd5b506004361061009d5760003560e01c80635807b580116100665780635807b580146101445780636ed212ee146101605780637f9fbaec1461017c5780638da5cb5b146101b4578063919840ad146101d25761009d565b80620e9f5f146100a257806339f2f5a7146100d25780633a16c68b146100ee5780634cc822151461010a57806356d88e2714610126575b600080fd5b6100bc60048036038101906100b79190610f5e565b6101f0565b6040516100c99190610fc2565b60405180910390f35b6100ec60048036038101906100e79190610fdd565b61029f565b005b610108600480360381019061010391906110ee565b610430565b005b610124600480360381019061011f919061114a565b61050f565b005b61012e6107ae565b60405161013b9190611186565b60405180910390f35b61015e600480360381019061015991906111a1565b6107bb565b005b61017a600480360381019061017591906111e1565b6109c7565b005b6101966004803603810190610191919061114a565b610bcb565b6040516101ab9998979695949392919061124e565b60405180910390f35b6101bc610c49565b6040516101c991906112db565b60405180910390f35b6101da610c6d565b6040516101e79190611186565b60405180910390f35b60008082600081518110610207576102066112f6565b5b6020026020010151905060005b8351811015610293578381815181106102305761022f6112f6565b5b602002602001015160c001518260c00151141580610270575083818151811061025c5761025b6112f6565b5b602002602001015160e001518260e0015114155b156102805760009250505061029a565b808061028b90611354565b915050610214565b5060019150505b919050565b60008054906101000a900473ffffffffffffffffffffffffffffffffffffffff1673ffffffffffffffffffffffffffffffffffffffff163373ffffffffffffffffffffffffffffffffffffffff161461032d576040517f08c379a0000000000000000000000000000000000000000000000000000000008152600401610324906113f9565b60405180910390fd5b610336816101f0565b610375576040517f08c379a000000000000000000000000000000000000000000000000000000000815260040161036c90611465565b60405180910390fd5b60008151905060005b60018261038b9190611485565b8110156103cc576103b98382815181106103a8576103a76112f6565b5b60200260200101516000015161050f565b80806103c490611354565b91505061037e565b5082826001836103dc9190611485565b815181106103ed576103ec6112f6565b5b60200260200101516020019073ffffffffffffffffffffffffffffffffffffffff16908173ffffffffffffffffffffffffffffffffffffffff1681525050505050565b60008054906101000a900473ffffffffffffffffffffffffffffffffffffffff1673ffffffffffffffffffffffffffffffffffffffff163373ffffffffffffffffffffffffffffffffffffffff16146104be576040517f08c379a00000000000000000000000000000000000000000000000000000000081526004016104b5906113f9565b60405180910390fd5b80600160008473ffffffffffffffffffffffffffffffffffffffff1673ffffffffffffffffffffffffffffffffffffffff168152602001908152602001600020908161050a91906116d0565b505050565b60008054906101000a900473ffffffffffffffffffffffffffffffffffffffff1673ffffffffffffffffffffffffffffffffffffffff163373ffffffffffffffffffffffffffffffffffffffff161461059d576040517f08c379a0000000000000000000000000000000000000000000000000000000008152600401610594906113f9565b60405180910390fd5b600081036105e0576040517f08c379a00000000000000000000000000000000000000000000000000000000081526004016105d790611814565b60405180910390fd5b600360016003805490506105f49190611485565b81548110610605576106046112f6565b5b906000526020600020906009020160038281548110610627576106266112f6565b5b9060005260206000209060090201600082015481600001556001820160009054906101000a900473ffffffffffffffffffffffffffffffffffffffff168160010160006101000a81548173ffffffffffffffffffffffffffffffffffffffff021916908373ffffffffffffffffffffffffffffffffffffffff160217905550600282015481600201556003820154816003015560048201548160040155600582015481600501556006820154816006015560078201548160070155600882015481600801559050508060038281548110610704576107036112f6565b5b906000526020600020906009020160000181905550600380548061072b5761072a611834565b5b60019003818190600052602060002090600902016000808201600090556001820160006101000a81549073ffffffffffffffffffffffffffffffffffffffff021916905560028201600090556003820160009055600482016000905560058201600090556006820160009055600782016000905560088201600090555050905550565b6000600380549050905090565b6000600260003373ffffffffffffffffffffffffffffffffffffffff1673ffffffffffffffffffffffffffffffffffffffff168152602001908152602001600020549050600081118015610813575060038054905081105b610852576040517f08c379a0000000000000000000000000000000000000000000000000000000008152600401610849906118af565b60405180910390fd5b8260038281548110610867576108666112f6565b5b9060005260206000209060090201600601819055508160038281548110610891576108906112f6565b5b9060005260206000209060090201600701819055506000600160003373ffffffffffffffffffffffffffffffffffffffff1673ffffffffffffffffffffffffffffffffffffffff16815260200190815260200160002080546108f2906114f3565b80601f016020809104026020016040519081016040528092919081815260200182805461091e906114f3565b801561096b5780601f106109405761010080835404028352916020019161096b565b820191906000526020600020905b81548152906001019060200180831161094e57829003601f168201915b50505050509050806040516109809190611935565b60405180910390207f4329e25fc01f748355463b325daf955236fab1983895985747a1738e6fc0c87885856040516109b992919061194c565b60405180910390a250505050565b60008054906101000a900473ffffffffffffffffffffffffffffffffffffffff1673ffffffffffffffffffffffffffffffffffffffff163373ffffffffffffffffffffffffffffffffffffffff1614610a55576040517f08c379a0000000000000000000000000000000000000000000000000000000008152600401610a4c906113f9565b60405180910390fd5b60038054905082600001818152505060038290806001815401808255809150506001900390600052602060002090600902016000909190919091506000820151816000015560208201518160010160006101000a81548173ffffffffffffffffffffffffffffffffffffffff021916908373ffffffffffffffffffffffffffffffffffffffff16021790555060408201518160020155606082015181600301556080820151816004015560a0820151816005015560c0820151816006015560e08201518160070155610100820151816008015550508060016000846020015173ffffffffffffffffffffffffffffffffffffffff1673ffffffffffffffffffffffffffffffffffffffff1681526020019081526020016000209081610b7a91906116d0565b50816000015160026000846020015173ffffffffffffffffffffffffffffffffffffffff1673ffffffffffffffffffffffffffffffffffffffff168152602001908152602001600020819055505050565b60038181548110610bdb57600080fd5b90600052602060002090600902016000915090508060000154908060010160009054906101000a900473ffffffffffffffffffffffffffffffffffffffff16908060020154908060030154908060040154908060050154908060060154908060070154908060080154905089565b60008054906101000a900473ffffffffffffffffffffffffffffffffffffffff1681565b60006017905090565b6000604051905090565b600080fd5b600080fd5b600080fd5b6000601f19601f8301169050919050565b7f4e487b7100000000000000000000000000000000000000000000000000000000600052604160045260246000fd5b610cd882610c8f565b810181811067ffffffffffffffff82111715610cf757610cf6610ca0565b5b80604052505050565b6000610d0a610c76565b9050610d168282610ccf565b919050565b600067ffffffffffffffff821115610d3657610d35610ca0565b5b602082029050602081019050919050565b600080fd5b600080fd5b6000819050919050565b610d6481610d51565b8114610d6f57600080fd5b50565b600081359050610d8181610d5b565b92915050565b600073ffffffffffffffffffffffffffffffffffffffff82169050919050565b6000610db282610d87565b9050919050565b610dc281610da7565b8114610dcd57600080fd5b50565b600081359050610ddf81610db9565b92915050565b60006101208284031215610dfc57610dfb610d4c565b5b610e07610120610d00565b90506000610e1784828501610d72565b6000830152506020610e2b84828501610dd0565b6020830152506040610e3f84828501610d72565b6040830152506060610e5384828501610d72565b6060830152506080610e6784828501610d72565b60808301525060a0610e7b84828501610d72565b60a08301525060c0610e8f84828501610d72565b60c08301525060e0610ea384828501610d72565b60e083015250610100610eb884828501610d72565b6101008301525092915050565b6000610ed8610ed384610d1b565b610d00565b9050808382526020820190506101208402830185811115610efc57610efb610d47565b5b835b81811015610f265780610f118882610de5565b84526020840193505061012081019050610efe565b5050509392505050565b600082601f830112610f4557610f44610c8a565b5b8135610f55848260208601610ec5565b91505092915050565b600060208284031215610f7457610f73610c80565b5b600082013567ffffffffffffffff811115610f9257610f91610c85565b5b610f9e84828501610f30565b91505092915050565b60008115159050919050565b610fbc81610fa7565b82525050565b6000602082019050610fd76000830184610fb3565b92915050565b60008060408385031215610ff457610ff3610c80565b5b600061100285828601610dd0565b925050602083013567ffffffffffffffff81111561102357611022610c85565b5b61102f85828601610f30565b9150509250929050565b600080fd5b600067ffffffffffffffff82111561105957611058610ca0565b5b61106282610c8f565b9050602081019050919050565b82818337600083830152505050565b600061109161108c8461103e565b610d00565b9050828152602081018484840111156110ad576110ac611039565b5b6110b884828561106f565b509392505050565b600082601f8301126110d5576110d4610c8a565b5b81356110e584826020860161107e565b91505092915050565b6000806040838503121561110557611104610c80565b5b600061111385828601610dd0565b925050602083013567ffffffffffffffff81111561113457611133610c85565b5b611140858286016110c0565b9150509250929050565b6000602082840312156111605761115f610c80565b5b600061116e84828501610d72565b91505092915050565b61118081610d51565b82525050565b600060208201905061119b6000830184611177565b92915050565b600080604083850312156111b8576111b7610c80565b5b60006111c685828601610d72565b92505060206111d785828601610d72565b9150509250929050565b60008061014083850312156111f9576111f8610c80565b5b600061120785828601610de5565b92505061012083013567ffffffffffffffff81111561122957611228610c85565b5b611235858286016110c0565b9150509250929050565b61124881610da7565b82525050565b600061012082019050611264600083018c611177565b611271602083018b61123f565b61127e604083018a611177565b61128b6060830189611177565b6112986080830188611177565b6112a560a0830187611177565b6112b260c0830186611177565b6112bf60e0830185611177565b6112cd610100830184611177565b9a9950505050505050505050565b60006020820190506112f0600083018461123f565b92915050565b7f4e487b7100000000000000000000000000000000000000000000000000000000600052603260045260246000fd5b7f4e487b7100000000000000000000000000000000000000000000000000000000600052601160045260246000fd5b600061135f82610d51565b91507fffffffffffffffffffffffffffffffffffffffffffffffffffffffffffffffff820361139157611390611325565b5b600182019050919050565b600082825260208201905092915050565b7f417574686f72697a6564206f6e6c7920746f204f776e65720000000000000000600082015250565b60006113e360188361139c565b91506113ee826113ad565b602082019050919050565b60006020820190508181036000830152611412816113d6565b9050919050565b7f4c6f636174696f6e206f66206576656e747320646f6e2774206d617463680000600082015250565b600061144f601e8361139c565b915061145a82611419565b602082019050919050565b6000602082019050818103600083015261147e81611442565b9050919050565b600061149082610d51565b915061149b83610d51565b92508282039050818111156114b3576114b2611325565b5b92915050565b600081519050919050565b7f4e487b7100000000000000000000000000000000000000000000000000000000600052602260045260246000fd5b6000600282049050600182168061150b57607f821691505b60208210810361151e5761151d6114c4565b5b50919050565b60008190508160005260206000209050919050565b60006020601f8301049050919050565b600082821b905092915050565b6000600883026115867fffffffffffffffffffffffffffffffffffffffffffffffffffffffffffffffff82611549565b6115908683611549565b95508019841693508086168417925050509392505050565b6000819050919050565b60006115cd6115c86115c384610d51565b6115a8565b610d51565b9050919050565b6000819050919050565b6115e7836115b2565b6115fb6115f3826115d4565b848454611556565b825550505050565b600090565b611610611603565b61161b8184846115de565b505050565b5b8181101561163f57611634600082611608565b600181019050611621565b5050565b601f8211156116845761165581611524565b61165e84611539565b8101602085101561166d578190505b61168161167985611539565b830182611620565b50505b505050565b600082821c905092915050565b60006116a760001984600802611689565b1980831691505092915050565b60006116c08383611696565b9150826002028217905092915050565b6116d9826114b9565b67ffffffffffffffff8111156116f2576116f1610ca0565b5b6116fc82546114f3565b611707828285611643565b600060209050601f83116001811461173a5760008415611728578287015190505b61173285826116b4565b86555061179a565b601f19841661174886611524565b60005b828110156117705784890151825560018201915060208501945060208101905061174b565b8683101561178d5784890151611789601f891682611696565b8355505b6001600288020188555050505b505050505050565b7f43616e6e6f742072656d6f76652064756d6d7920537570706c69657220756e6960008201527f74206174207374617274206f66204d6f76657273206172726179000000000000602082015250565b60006117fe603a8361139c565b9150611809826117a2565b604082019050919050565b6000602082019050818103600083015261182d816117f1565b9050919050565b7f4e487b7100000000000000000000000000000000000000000000000000000000600052603160045260246000fd5b7f6e6f742076656e646f7200000000000000000000000000000000000000000000600082015250565b6000611899600a8361139c565b91506118a482611863565b602082019050919050565b600060208201905081810360008301526118c88161188c565b9050919050565b600081905092915050565b60005b838110156118f85780820151818401526020810190506118dd565b60008484015250505050565b600061190f826114b9565b61191981856118cf565b93506119298185602086016118da565b80840191505092915050565b60006119418284611904565b915081905092915050565b60006040820190506119616000830185611177565b61196e6020830184611177565b939250505056fea2646970667358221220d1468fcee17aa71f2037fa5d6519a27ca87ce3b2825db5b01e6254860fcbe07164736f6c63430008110033",
  "linkReferences": {},
  "deployedLinkReferences": {}
}