{
  "_format": "hh-sol-artifact-1",
  "contractName": "supplychain",
  "sourceName": "contracts/Supply.sol",
  "abi": [
    {
      "inputs": [],
      "stateMutability": "nonpayable",
      "type": "constructor"
    },
    {
      "anonymous": false,
      "inputs": [
        {
          "indexed": true,
          "internalType": "string",
          "name": "vendor",
          "type": "string"
        },
        {
          "indexed": false,
          "internalType": "uint256",
          "name": "latitiude",
          "type": "uint256"
        },
        {
          "indexed": false,
          "internalType": "uint256",
          "name": "longitude",
          "type": "uint256"
        }
      ],
      "name": "location",
      "type": "event"
    },
    {
      "inputs": [
        {
          "internalType": "uint256",
          "name": "",
          "type": "uint256"
        }
      ],
      "name": "Movers",
      "outputs": [
        {
          "internalType": "uint256",
          "name": "index",
          "type": "uint256"
        },
        {
          "internalType": "address",
          "name": "responsibleAddress",
          "type": "address"
        },
        {
          "internalType": "uint256",
          "name": "expected_time",
          "type": "uint256"
        },
        {
          "internalType": "uint256",
          "name": "quantity",
          "type": "uint256"
        },
        {
          "internalType": "uint256",
          "name": "exp_latitude",
          "type": "uint256"
        },
        {
          "internalType": "uint256",
          "name": "exp_longitude",
          "type": "uint256"
        },
        {
          "internalType": "uint256",
          "name": "latitude",
          "type": "uint256"
        },
        {
          "internalType": "uint256",
          "name": "longitude",
          "type": "uint256"
        },
        {
          "internalType": "uint256",
          "name": "time_began",
          "type": "uint256"
        }
      ],
      "stateMutability": "view",
      "type": "function"
    },
    {
      "inputs": [
        {
          "components": [
            {
              "internalType": "uint256",
              "name": "index",
              "type": "uint256"
            },
            {
              "internalType": "address",
              "name": "responsibleAddress",
              "type": "address"
            },
            {
              "internalType": "uint256",
              "name": "expected_time",
              "type": "uint256"
            },
            {
              "internalType": "uint256",
              "name": "quantity",
              "type": "uint256"
            },
            {
              "internalType": "uint256",
              "name": "exp_latitude",
              "type": "uint256"
            },
            {
              "internalType": "uint256",
              "name": "exp_longitude",
              "type": "uint256"
            },
            {
              "internalType": "uint256",
              "name": "latitude",
              "type": "uint256"
            },
            {
              "internalType": "uint256",
              "name": "longitude",
              "type": "uint256"
            },
            {
              "internalType": "uint256",
              "name": "time_began",
              "type": "uint256"
            }
          ],
          "internalType": "struct supplychain.UNITS",
          "name": "param",
          "type": "tuple"
        },
        {
          "internalType": "string",
          "name": "vendor",
          "type": "string"
        }
      ],
      "name": "add_unit",
      "outputs": [],
      "stateMutability": "nonpayable",
      "type": "function"
    },
    {
      "inputs": [
        {
          "internalType": "address",
          "name": "",
          "type": "address"
        }
      ],
      "name": "adrToVendor",
      "outputs": [
        {
          "internalType": "string",
          "name": "",
          "type": "string"
        }
      ],
      "stateMutability": "view",
      "type": "function"
    },
    {
      "inputs": [],
      "name": "check",
      "outputs": [
        {
          "internalType": "uint256",
          "name": "",
          "type": "uint256"
        }
      ],
      "stateMutability": "pure",
      "type": "function"
    },
    {
      "inputs": [
        {
          "components": [
            {
              "internalType": "uint256",
              "name": "index",
              "type": "uint256"
            },
            {
              "internalType": "address",
              "name": "responsibleAddress",
              "type": "address"
            },
            {
              "internalType": "uint256",
              "name": "expected_time",
              "type": "uint256"
            },
            {
              "internalType": "uint256",
              "name": "quantity",
              "type": "uint256"
            },
            {
              "internalType": "uint256",
              "name": "exp_latitude",
              "type": "uint256"
            },
            {
              "internalType": "uint256",
              "name": "exp_longitude",
              "type": "uint256"
            },
            {
              "internalType": "uint256",
              "name": "latitude",
              "type": "uint256"
            },
            {
              "internalType": "uint256",
              "name": "longitude",
              "type": "uint256"
            },
            {
              "internalType": "uint256",
              "name": "time_began",
              "type": "uint256"
            }
          ],
          "internalType": "struct supplychain.UNITS[]",
          "name": "units",
          "type": "tuple[]"
        }
      ],
      "name": "checkLocation",
      "outputs": [
        {
          "internalType": "bool",
          "name": "",
          "type": "bool"
        }
      ],
      "stateMutability": "pure",
      "type": "function"
    },
    {
      "inputs": [
        {
          "internalType": "address",
          "name": "RA",
          "type": "address"
        },
        {
          "components": [
            {
              "internalType": "uint256",
              "name": "index",
              "type": "uint256"
            },
            {
              "internalType": "address",
              "name": "responsibleAddress",
              "type": "address"
            },
            {
              "internalType": "uint256",
              "name": "expected_time",
              "type": "uint256"
            },
            {
              "internalType": "uint256",
              "name": "quantity",
              "type": "uint256"
            },
            {
              "internalType": "uint256",
              "name": "exp_latitude",
              "type": "uint256"
            },
            {
              "internalType": "uint256",
              "name": "exp_longitude",
              "type": "uint256"
            },
            {
              "internalType": "uint256",
              "name": "latitude",
              "type": "uint256"
            },
            {
              "internalType": "uint256",
              "name": "longitude",
              "type": "uint256"
            },
            {
              "internalType": "uint256",
              "name": "time_began",
              "type": "uint256"
            }
          ],
          "internalType": "struct supplychain.UNITS[]",
          "name": "units",
          "type": "tuple[]"
        }
      ],
      "name": "combineEvents",
      "outputs": [],
      "stateMutability": "nonpayable",
      "type": "function"
    },
    {
      "inputs": [
        {
          "internalType": "uint256",
          "name": "lat",
          "type": "uint256"
        },
        {
          "internalType": "uint256",
          "name": "long",
          "type": "uint256"
        }
      ],
      "name": "emitLocation",
      "outputs": [],
      "stateMutability": "nonpayable",
      "type": "function"
    },
    {
      "inputs": [],
      "name": "len",
      "outputs": [
        {
          "internalType": "uint256",
          "name": "",
          "type": "uint256"
        }
      ],
      "stateMutability": "view",
      "type": "function"
    },
    {
      "inputs": [
        {
          "internalType": "address",
          "name": "adr",
          "type": "address"
        },
        {
          "internalType": "string",
          "name": "vendor",
          "type": "string"
        }
      ],
      "name": "modifyAdr",
      "outputs": [],
      "stateMutability": "nonpayable",
      "type": "function"
    },
    {
      "inputs": [],
      "name": "owner",
      "outputs": [
        {
          "internalType": "address",
          "name": "",
          "type": "address"
        }
      ],
      "stateMutability": "view",
      "type": "function"
    },
    {
      "inputs": [
        {
          "internalType": "uint256",
          "name": "index",
          "type": "uint256"
        }
      ],
      "name": "remove",
      "outputs": [],
      "stateMutability": "nonpayable",
      "type": "function"
    }
  ],
  "bytecode": "0x60806040523480156200001157600080fd5b50336000806101000a81548173ffffffffffffffffffffffffffffffffffffffff021916908373ffffffffffffffffffffffffffffffffffffffff1602179055506200005c6200028d565b6200007d81604051806020016040528060008152506200008460201b60201c565b50620006d3565b60008054906101000a900473ffffffffffffffffffffffffffffffffffffffff1673ffffffffffffffffffffffffffffffffffffffff163373ffffffffffffffffffffffffffffffffffffffff161462000115576040517f08c379a00000000000000000000000000000000000000000000000000000000081526004016200010c9062000350565b60405180910390fd5b60038054905082600001818152505060038290806001815401808255809150506001900390600052602060002090600902016000909190919091506000820151816000015560208201518160010160006101000a81548173ffffffffffffffffffffffffffffffffffffffff021916908373ffffffffffffffffffffffffffffffffffffffff16021790555060408201518160020155606082015181600301556080820151816004015560a0820151816005015560c0820151816006015560e08201518160070155610100820151816008015550508060016000846020015173ffffffffffffffffffffffffffffffffffffffff1673ffffffffffffffffffffffffffffffffffffffff16815260200190815260200160002090816200023c9190620005ec565b50816000015160026000846020015173ffffffffffffffffffffffffffffffffffffffff1673ffffffffffffffffffffffffffffffffffffffff168152602001908152602001600020819055505050565b60405180610120016040528060008152602001600073ffffffffffffffffffffffffffffffffffffffff168152602001600081526020016000815260200160008152602001600081526020016000815260200160008152602001600081525090565b600082825260208201905092915050565b7f417574686f72697a6564206f6e6c7920746f204f776e65720000000000000000600082015250565b600062000338601883620002ef565b9150620003458262000300565b602082019050919050565b600060208201905081810360008301526200036b8162000329565b9050919050565b600081519050919050565b7f4e487b7100000000000000000000000000000000000000000000000000000000600052604160045260246000fd5b7f4e487b7100000000000000000000000000000000000000000000000000000000600052602260045260246000fd5b60006002820490506001821680620003f457607f821691505b6020821081036200040a5762000409620003ac565b5b50919050565b60008190508160005260206000209050919050565b60006020601f8301049050919050565b600082821b905092915050565b600060088302620004747fffffffffffffffffffffffffffffffffffffffffffffffffffffffffffffffff8262000435565b62000480868362000435565b95508019841693508086168417925050509392505050565b6000819050919050565b6000819050919050565b6000620004cd620004c7620004c18462000498565b620004a2565b62000498565b9050919050565b6000819050919050565b620004e983620004ac565b62000501620004f882620004d4565b84845462000442565b825550505050565b600090565b6200051862000509565b62000525818484620004de565b505050565b5b818110156200054d57620005416000826200050e565b6001810190506200052b565b5050565b601f8211156200059c57620005668162000410565b620005718462000425565b8101602085101562000581578190505b62000599620005908562000425565b8301826200052a565b50505b505050565b600082821c905092915050565b6000620005c160001984600802620005a1565b1980831691505092915050565b6000620005dc8383620005ae565b9150826002028217905092915050565b620005f78262000372565b67ffffffffffffffff8111156200061357620006126200037d565b5b6200061f8254620003db565b6200062c82828562000551565b600060209050601f8311600181146200066457600084156200064f578287015190505b6200065b8582620005ce565b865550620006cb565b601f198416620006748662000410565b60005b828110156200069e5784890151825560018201915060208501945060208101905062000677565b86831015620006be5784890151620006ba601f891682620005ae565b8355505b6001600288020188555050505b505050505050565b611bd180620006e36000396000f3fe608060405234801561001057600080fd5b50600436106100a85760003560e01c806356d88e271161007157806356d88e27146101615780635807b5801461017f5780636ed212ee1461019b5780637f9fbaec146101b75780638da5cb5b146101ef578063919840ad1461020d576100a8565b80620e9f5f146100ad5780630d62e45c146100dd57806339f2f5a71461010d5780633a16c68b146101295780634cc8221514610145575b600080fd5b6100c760048036038101906100c291906110fc565b61022b565b6040516100d49190611160565b60405180910390f35b6100f760048036038101906100f2919061117b565b6102da565b6040516101049190611227565b60405180910390f35b61012760048036038101906101229190611249565b61037a565b005b610143600480360381019061013e919061135a565b6105ce565b005b61015f600480360381019061015a91906113b6565b6106ad565b005b61016961094c565b60405161017691906113f2565b60405180910390f35b6101996004803603810190610194919061140d565b610959565b005b6101b560048036038101906101b0919061144d565b610b65565b005b6101d160048036038101906101cc91906113b6565b610d69565b6040516101e6999897969594939291906114ba565b60405180910390f35b6101f7610de7565b6040516102049190611547565b60405180910390f35b610215610e0b565b60405161022291906113f2565b60405180910390f35b6000808260008151811061024257610241611562565b5b6020026020010151905060005b83518110156102ce5783818151811061026b5761026a611562565b5b602002602001015160c001518260c001511415806102ab575083818151811061029757610296611562565b5b602002602001015160e001518260e0015114155b156102bb576000925050506102d5565b80806102c6906115c0565b91505061024f565b5060019150505b919050565b600160205280600052604060002060009150905080546102f990611637565b80601f016020809104026020016040519081016040528092919081815260200182805461032590611637565b80156103725780601f1061034757610100808354040283529160200191610372565b820191906000526020600020905b81548152906001019060200180831161035557829003601f168201915b505050505081565b60008054906101000a900473ffffffffffffffffffffffffffffffffffffffff1673ffffffffffffffffffffffffffffffffffffffff163373ffffffffffffffffffffffffffffffffffffffff1614610408576040517f08c379a00000000000000000000000000000000000000000000000000000000081526004016103ff906116b4565b60405180910390fd5b6104118161022b565b610450576040517f08c379a000000000000000000000000000000000000000000000000000000000815260040161044790611720565b60405180910390fd5b60008151905060005b6001826104669190611740565b8110156104a75761049483828151811061048357610482611562565b5b6020026020010151600001516106ad565b808061049f906115c0565b915050610459565b506105c9826001836104b99190611740565b815181106104ca576104c9611562565b5b602002602001015160016000856001866104e49190611740565b815181106104f5576104f4611562565b5b60200260200101516020015173ffffffffffffffffffffffffffffffffffffffff1673ffffffffffffffffffffffffffffffffffffffff168152602001908152602001600020805461054690611637565b80601f016020809104026020016040519081016040528092919081815260200182805461057290611637565b80156105bf5780601f10610594576101008083540402835291602001916105bf565b820191906000526020600020905b8154815290600101906020018083116105a257829003601f168201915b5050505050610b65565b505050565b60008054906101000a900473ffffffffffffffffffffffffffffffffffffffff1673ffffffffffffffffffffffffffffffffffffffff163373ffffffffffffffffffffffffffffffffffffffff161461065c576040517f08c379a0000000000000000000000000000000000000000000000000000000008152600401610653906116b4565b60405180910390fd5b80600160008473ffffffffffffffffffffffffffffffffffffffff1673ffffffffffffffffffffffffffffffffffffffff16815260200190815260200160002090816106a89190611920565b505050565b60008054906101000a900473ffffffffffffffffffffffffffffffffffffffff1673ffffffffffffffffffffffffffffffffffffffff163373ffffffffffffffffffffffffffffffffffffffff161461073b576040517f08c379a0000000000000000000000000000000000000000000000000000000008152600401610732906116b4565b60405180910390fd5b6000810361077e576040517f08c379a000000000000000000000000000000000000000000000000000000000815260040161077590611a64565b60405180910390fd5b600360016003805490506107929190611740565b815481106107a3576107a2611562565b5b9060005260206000209060090201600382815481106107c5576107c4611562565b5b9060005260206000209060090201600082015481600001556001820160009054906101000a900473ffffffffffffffffffffffffffffffffffffffff168160010160006101000a81548173ffffffffffffffffffffffffffffffffffffffff021916908373ffffffffffffffffffffffffffffffffffffffff1602179055506002820154816002015560038201548160030155600482015481600401556005820154816005015560068201548160060155600782015481600701556008820154816008015590505080600382815481106108a2576108a1611562565b5b90600052602060002090600902016000018190555060038054806108c9576108c8611a84565b5b60019003818190600052602060002090600902016000808201600090556001820160006101000a81549073ffffffffffffffffffffffffffffffffffffffff021916905560028201600090556003820160009055600482016000905560058201600090556006820160009055600782016000905560088201600090555050905550565b6000600380549050905090565b6000600260003373ffffffffffffffffffffffffffffffffffffffff1673ffffffffffffffffffffffffffffffffffffffff1681526020019081526020016000205490506000811180156109b1575060038054905081105b6109f0576040517f08c379a00000000000000000000000000000000000000000000000000000000081526004016109e790611aff565b60405180910390fd5b8260038281548110610a0557610a04611562565b5b9060005260206000209060090201600601819055508160038281548110610a2f57610a2e611562565b5b9060005260206000209060090201600701819055506000600160003373ffffffffffffffffffffffffffffffffffffffff1673ffffffffffffffffffffffffffffffffffffffff1681526020019081526020016000208054610a9090611637565b80601f0160208091040260200160405190810160405280929190818152602001828054610abc90611637565b8015610b095780601f10610ade57610100808354040283529160200191610b09565b820191906000526020600020905b815481529060010190602001808311610aec57829003601f168201915b5050505050905080604051610b1e9190611b5b565b60405180910390207f4329e25fc01f748355463b325daf955236fab1983895985747a1738e6fc0c8788585604051610b57929190611b72565b60405180910390a250505050565b60008054906101000a900473ffffffffffffffffffffffffffffffffffffffff1673ffffffffffffffffffffffffffffffffffffffff163373ffffffffffffffffffffffffffffffffffffffff1614610bf3576040517f08c379a0000000000000000000000000000000000000000000000000000000008152600401610bea906116b4565b60405180910390fd5b60038054905082600001818152505060038290806001815401808255809150506001900390600052602060002090600902016000909190919091506000820151816000015560208201518160010160006101000a81548173ffffffffffffffffffffffffffffffffffffffff021916908373ffffffffffffffffffffffffffffffffffffffff16021790555060408201518160020155606082015181600301556080820151816004015560a0820151816005015560c0820151816006015560e08201518160070155610100820151816008015550508060016000846020015173ffffffffffffffffffffffffffffffffffffffff1673ffffffffffffffffffffffffffffffffffffffff1681526020019081526020016000209081610d189190611920565b50816000015160026000846020015173ffffffffffffffffffffffffffffffffffffffff1673ffffffffffffffffffffffffffffffffffffffff168152602001908152602001600020819055505050565b60038181548110610d7957600080fd5b90600052602060002090600902016000915090508060000154908060010160009054906101000a900473ffffffffffffffffffffffffffffffffffffffff16908060020154908060030154908060040154908060050154908060060154908060070154908060080154905089565b60008054906101000a900473ffffffffffffffffffffffffffffffffffffffff1681565b60006017905090565b6000604051905090565b600080fd5b600080fd5b600080fd5b6000601f19601f8301169050919050565b7f4e487b7100000000000000000000000000000000000000000000000000000000600052604160045260246000fd5b610e7682610e2d565b810181811067ffffffffffffffff82111715610e9557610e94610e3e565b5b80604052505050565b6000610ea8610e14565b9050610eb48282610e6d565b919050565b600067ffffffffffffffff821115610ed457610ed3610e3e565b5b602082029050602081019050919050565b600080fd5b600080fd5b6000819050919050565b610f0281610eef565b8114610f0d57600080fd5b50565b600081359050610f1f81610ef9565b92915050565b600073ffffffffffffffffffffffffffffffffffffffff82169050919050565b6000610f5082610f25565b9050919050565b610f6081610f45565b8114610f6b57600080fd5b50565b600081359050610f7d81610f57565b92915050565b60006101208284031215610f9a57610f99610eea565b5b610fa5610120610e9e565b90506000610fb584828501610f10565b6000830152506020610fc984828501610f6e565b6020830152506040610fdd84828501610f10565b6040830152506060610ff184828501610f10565b606083015250608061100584828501610f10565b60808301525060a061101984828501610f10565b60a08301525060c061102d84828501610f10565b60c08301525060e061104184828501610f10565b60e08301525061010061105684828501610f10565b6101008301525092915050565b600061107661107184610eb9565b610e9e565b905080838252602082019050610120840283018581111561109a57611099610ee5565b5b835b818110156110c457806110af8882610f83565b8452602084019350506101208101905061109c565b5050509392505050565b600082601f8301126110e3576110e2610e28565b5b81356110f3848260208601611063565b91505092915050565b60006020828403121561111257611111610e1e565b5b600082013567ffffffffffffffff8111156111305761112f610e23565b5b61113c848285016110ce565b91505092915050565b60008115159050919050565b61115a81611145565b82525050565b60006020820190506111756000830184611151565b92915050565b60006020828403121561119157611190610e1e565b5b600061119f84828501610f6e565b91505092915050565b600081519050919050565b600082825260208201905092915050565b60005b838110156111e25780820151818401526020810190506111c7565b60008484015250505050565b60006111f9826111a8565b61120381856111b3565b93506112138185602086016111c4565b61121c81610e2d565b840191505092915050565b6000602082019050818103600083015261124181846111ee565b905092915050565b600080604083850312156112605761125f610e1e565b5b600061126e85828601610f6e565b925050602083013567ffffffffffffffff81111561128f5761128e610e23565b5b61129b858286016110ce565b9150509250929050565b600080fd5b600067ffffffffffffffff8211156112c5576112c4610e3e565b5b6112ce82610e2d565b9050602081019050919050565b82818337600083830152505050565b60006112fd6112f8846112aa565b610e9e565b905082815260208101848484011115611319576113186112a5565b5b6113248482856112db565b509392505050565b600082601f83011261134157611340610e28565b5b81356113518482602086016112ea565b91505092915050565b6000806040838503121561137157611370610e1e565b5b600061137f85828601610f6e565b925050602083013567ffffffffffffffff8111156113a05761139f610e23565b5b6113ac8582860161132c565b9150509250929050565b6000602082840312156113cc576113cb610e1e565b5b60006113da84828501610f10565b91505092915050565b6113ec81610eef565b82525050565b600060208201905061140760008301846113e3565b92915050565b6000806040838503121561142457611423610e1e565b5b600061143285828601610f10565b925050602061144385828601610f10565b9150509250929050565b600080610140838503121561146557611464610e1e565b5b600061147385828601610f83565b92505061012083013567ffffffffffffffff81111561149557611494610e23565b5b6114a18582860161132c565b9150509250929050565b6114b481610f45565b82525050565b6000610120820190506114d0600083018c6113e3565b6114dd602083018b6114ab565b6114ea604083018a6113e3565b6114f760608301896113e3565b61150460808301886113e3565b61151160a08301876113e3565b61151e60c08301866113e3565b61152b60e08301856113e3565b6115396101008301846113e3565b9a9950505050505050505050565b600060208201905061155c60008301846114ab565b92915050565b7f4e487b7100000000000000000000000000000000000000000000000000000000600052603260045260246000fd5b7f4e487b7100000000000000000000000000000000000000000000000000000000600052601160045260246000fd5b60006115cb82610eef565b91507fffffffffffffffffffffffffffffffffffffffffffffffffffffffffffffffff82036115fd576115fc611591565b5b600182019050919050565b7f4e487b7100000000000000000000000000000000000000000000000000000000600052602260045260246000fd5b6000600282049050600182168061164f57607f821691505b60208210810361166257611661611608565b5b50919050565b7f417574686f72697a6564206f6e6c7920746f204f776e65720000000000000000600082015250565b600061169e6018836111b3565b91506116a982611668565b602082019050919050565b600060208201905081810360008301526116cd81611691565b9050919050565b7f4c6f636174696f6e206f66206576656e747320646f6e2774206d617463680000600082015250565b600061170a601e836111b3565b9150611715826116d4565b602082019050919050565b60006020820190508181036000830152611739816116fd565b9050919050565b600061174b82610eef565b915061175683610eef565b925082820390508181111561176e5761176d611591565b5b92915050565b60008190508160005260206000209050919050565b60006020601f8301049050919050565b600082821b905092915050565b6000600883026117d67fffffffffffffffffffffffffffffffffffffffffffffffffffffffffffffffff82611799565b6117e08683611799565b95508019841693508086168417925050509392505050565b6000819050919050565b600061181d61181861181384610eef565b6117f8565b610eef565b9050919050565b6000819050919050565b61183783611802565b61184b61184382611824565b8484546117a6565b825550505050565b600090565b611860611853565b61186b81848461182e565b505050565b5b8181101561188f57611884600082611858565b600181019050611871565b5050565b601f8211156118d4576118a581611774565b6118ae84611789565b810160208510156118bd578190505b6118d16118c985611789565b830182611870565b50505b505050565b600082821c905092915050565b60006118f7600019846008026118d9565b1980831691505092915050565b600061191083836118e6565b9150826002028217905092915050565b611929826111a8565b67ffffffffffffffff81111561194257611941610e3e565b5b61194c8254611637565b611957828285611893565b600060209050601f83116001811461198a5760008415611978578287015190505b6119828582611904565b8655506119ea565b601f19841661199886611774565b60005b828110156119c05784890151825560018201915060208501945060208101905061199b565b868310156119dd57848901516119d9601f8916826118e6565b8355505b6001600288020188555050505b505050505050565b7f43616e6e6f742072656d6f76652064756d6d7920537570706c69657220756e6960008201527f74206174207374617274206f66204d6f76657273206172726179000000000000602082015250565b6000611a4e603a836111b3565b9150611a59826119f2565b604082019050919050565b60006020820190508181036000830152611a7d81611a41565b9050919050565b7f4e487b7100000000000000000000000000000000000000000000000000000000600052603160045260246000fd5b7f6e6f742076656e646f7200000000000000000000000000000000000000000000600082015250565b6000611ae9600a836111b3565b9150611af482611ab3565b602082019050919050565b60006020820190508181036000830152611b1881611adc565b9050919050565b600081905092915050565b6000611b35826111a8565b611b3f8185611b1f565b9350611b4f8185602086016111c4565b80840191505092915050565b6000611b678284611b2a565b915081905092915050565b6000604082019050611b8760008301856113e3565b611b9460208301846113e3565b939250505056fea26469706673582212208018b1e8bb02616a4b34f5427e7e7d79a852bffbdbd2c4ffe9438f6787fc7d5064736f6c63430008110033",
  "linkReferences": {},
  "deployedLinkReferences": {}
}